S0030000FC
S10BFFF8F1EBF1EDF1EFF0DD96
S113F000B6020084F1B70200B602028A0EB7020209
S113F0103936B602008A04B70200323936B6020025
S113F02084FBB70200323936B602008804B7020006
S113F030323936B602008A08B70200323936B602CF
S113F0400084F7B70200323936B602008808B702E6
S113F05000323936B602008A02B70200323936B6B7
S113F060020084FDB70200323936B602008802B7C6
S107F070020032392B
S113F074860EB7020CB6020084FEB702008600B7FF
S113F0840203B602028A21843FB70202B602002BAD
S113F0940DC60CF7020C01C60EF7020C20EE39362D
S113F0A4B60200854026F932B7020186FFB702038F
S113F0B4B602008A01B7020084FEB702008600B7D4
S113F0C4020339B602002B0FC60CF7020CB6020178
S113F0D4C60EF7020C0D390C398E01FFBDF074BD58
S113F0E4F00086009701970097039702CEF1D6A605
S113F0F4002706BDF0A30820F6BDF01C860ABDF067
S113F104A39600BDF19F9601BDF19F8620BDF0A397
S113F114DE00A600BDF19F863EBDF0A3BDF0C7246A
S113F124FBBDF01116BDF0A317813F27BF813D2716
S113F134C8810A26089603DE00A7002004812B2632
S113F14407DE0008DF0020B1812D2607DE0009DF79
S113F1540020A68167260A86DD3686F036DE006E38
S113F164008120260CDE02DF00860097039702202C
S113F174888A20C60FCEF1D5A1002707095A2AF898
S113F1847EF0FD379603D6024859485948594859E0
S113F1949703D702329A03970320811644444444C4
S113F1A4CEF1C6DF049B059705DE04A600BDF0A3DB
S113F1B4C40FCEF1C6DF04DB05D705DE04A6007E4A
S113F1C4F0A330313233343536373839616263640D
S113F1D465660A4D696E694D6F6E2C302E312C367E
S110F1E43830322C300A0020FE20FE20FEC0
S903F0DD2F
