S0030000FC
S10BFFF8F2B5F2B7F2B9F156BB
S113F000B6020084F1B70200B602028A0EB7020209
S113F0103936B602008A04B70200323936B6020025
S113F02084FBB70200323936B602008804B7020006
S113F030323936B602008A08B70200323936B602CF
S113F0400084F7B70200323936B602008808B702E6
S113F05000323936B602008A02B70200323936B6B7
S113F060020084FDB70200323936B602008802B7C6
S107F070020032392B
S113F074860EB7020CB6020084FEB702008600B7FF
S113F0840203B602028A21843FB70202B602002BAD
S113F0940DC60CF7020C01C60EF7020C20EE39362D
S113F0A4B60200854026F932B7020186FFB702038F
S113F0B4B602008A01B7020084FEB702008600B7D4
S113F0C4020339A6002706BDF0A30820F639B602C8
S113F0D4002B0FC60CF7020CB60201C60EF7020C85
S113F0E40D390C398DE824FC39BDF100250D48484F
S113F0F4484836BDF1002503331B0C39BDF0E88ABA
S113F10420C60FCEF155A1002706095A2AF80D3955
S113F114170C391644444444CEF146DF049B059746
S113F12405DE04A600BDF0A3C40FCEF146DF04DB64
S113F13405D705DE04A6007EF0A33617BDF1173209
S113F14420D130313233343536373839616263642F
S113F15465668E01FFBDF074BDF0008600970197CB
S113F1640097039702CEF2A0BDF0C7860ABDF0A3B0
S113F174D6009601BDF13E8620BDF0A3DE00A600B4
S113F184BDF117863EBDF0A3BDF0E81617813F27F5
S113F194D481532761813D27D2810A26089603DE50
S113F1A400A7002004812B2607DE0008DF0020BB13
S113F1B4812D2607DE0009DF0020B08167260A8638
S113F1C4563686F136DE006E008120260CDE02DF20
S113F1D4008600970397022092BDF103258D36968D
S113F1E403D60248594859485948599703D7023213
S113F1F49A0397032092BDF0E89706813027128181
S113F2043127118139270DBDF0E8810A26F97EF1F1
S113F2146FBDF01C7F0008BDF28B25549707BDF227
S113F2248B254D9700BDF28B2546970196068130B8
S113F2342612CEF29BBDF0C79601D600BDF13E86E0
S113F2443ABDF0A396074A271DBDF28B2522D606A4
S113F254C1302605BDF0A320EBC13126E7DE00A7AB
S113F2640008DF0020DEBDF28B250596084C270537
S113F274BDF0112092D606C139268CDE008C000024
S113F2842785AD007EF15FBDF0ED250A369B089716
S113F294087A0007320C390A533020000A4D696E8B
S113F2A4694D6F6E2C302E312C363830322C300AA6
S10AF2B40020FE20FE20FEF5
S903F156B5
