S0030000FC
S113F000860EB7020CB6020084FEB702008600B773
S113F0100203B602028A21843FB70202B602002B21
S113F0200DC60CF7020C01C60EF7020C20EE3936A1
S113F030B60200854026F932B7020186FFB7020303
S113F040B602008A01B7020084FEB702008600B748
S113F050020339B602002B0FC60CF7020CB60201EC
S10CF060C60EF7020C0D390C393F
S113F069B6020084F1B70200B602028A0EB70202A0
S113F0793936B602008A04B70200323936B60200BC
S113F08984FBB70200323936B602008804B702009D
S105F099323906
S113F09B8E01FFBDF000BDF06986009701970097C4
S113F0AB039702CEF192A6002706BDF02F0820F697
S113F0BB8DC8860ABDF02F9600BDF15B9601BDF19C
S113F0CB5B8620BDF02FDE00A600BDF15B863EBD46
S113F0DBF02FBDF05324FB8D9616BDF02F17813FF7
S113F0EB27C1813D27CA810A26089603DE00A700A3
S113F0FB2004812B2607DE0008DF0020B3812D2698
S113F10B07DE0009DF0020A88167260A869B368666
S113F11BF036DE006E008120260CDE02DF00860056
S113F12B97039702208A8A20C60FCEF191A100275C
S113F13B07095A2AF87EF0BB379603D6024859487A
S113F14B59485948599703D702329A039703208297
S113F15B1644444444CEF182DF049B059705DE0438
S113F16BA600BDF02FC40FCEF182DF04DB05D7055B
S113F17BDE04A6007EF02F30313233343536373887
S113F18B396162636465660A4D696E694D6F6E2CF5
S113F19B302E312C363830322C300A0020FE20FE33
S105F1AB20FE40
S10BFFF8F1A7F1A9F1ABF09BA4
S9030000FC
