S0030000FC
S113F000860EB7020CB6020084FEB702008600B773
S113F0100203B602028A21843FB70202B602002B21
S113F0200DC60CF7020C01C60EF7020C20EE3936A1
S113F030B60200854026F932B7020186FFB7020303
S113F040B602008A01B7020084FEB702008600B748
S113F050020339B602002B0FC60CF7020CB60201EC
S10CF060C60EF7020C0D390C393F
S113F069B6020084F1B70200B602028A0EB70202A0
S113F0793936B602008A04B70200323936B60200BC
S113F08984FBB70200323936B602008804B702009D
S113F099323936B602008A08B70200323936B60266
S113F0A90084F7B70200323936B602008808B7027D
S113F0B900323936B602008A02B70200323936B64E
S113F0C9020084FDB70200323936B602008802B75D
S107F0D902003239C2
S113F0DD8E01FFBDF000BDF0698600970197009782
S113F0ED039702CEF1D5A6002706BDF02F0820F612
S113F0FD8D86860ABDF02F9600BDF19E9601BDF159
S113F10D9E8620BDF02FDE00A600BDF19E863EBD7D
S113F11DF02FBDF05324FBBDF07A16BDF02F1781EF
S113F12D3F27C0813D27C9810A26089603DE00A723
S113F13D002004812B2607DE0008DF0020B2812D7C
S113F14D2607DE0009DF0020A78167260A86DD3643
S113F15D86F036DE006E008120260CDE02DF00868E
S113F16D009703970220898A20C60FCEF1D4A100FF
S113F17D2707095A2AF87EF0FD379603D602485917
S113F18D4859485948599703D702329A039703208F
S113F19D811644444444CEF1C5DF049B059705DE36
S113F1AD04A600BDF02FC40FCEF1C5DF04DB05D7D7
S113F1BD05DE04A6007EF02F303132333435363778
S113F1CD38396162636465660A4D696E694D6F6EA7
S113F1DD2C302E312C363830322C300A0020FE20C3
S106F1EDFE20FEFF
S10BFFF8F1EAF1ECF1EEF0DD99
S9030000FC
